_CustomObjectKey,Base
1513,"001         000000000100000514236175019730722ALEXANDRA DOS SANTOS GUERREIRO                                                                                                                                                                                                                                 "
1514,"001         000000000100000557650178019800522VINICIUS DE PAULA RAMOS                                                                                                                                                                                                                                        "
1515,"001         000000000100000831122072719800101ANTONIO CARLOS DA SILVA CARTAXO MOURAO                                                                                                                                                                                                                         "
1516,"001         000000000100000914973479219810808CASSIANO FRAGA GUIMARAES VIANA                                                                                                                                                                                                                                 "
1517,"001         000000000100002781001384019750517ALYSSON PAIVA SALVADOR                                                                                                                                                                                                                                         "
1518,"001         000000000100003390307885919850513LUCAS ROMILDO DE PAIVA                                                                                                                                                                                                                                         "
1519,"001         000000000100008506564174919661107MARCIA MIGUEZ CANDIDO DE FIGUEIREDO                                                                                                                                                                                                                            "